:100000000C944E000C9476000C9476000C947600C0
:100010000C9476000C9476000C9476000C94760088
:100020000C9476000C9476000C9476000C94760078
:100030000C9476000C9476000C9476000C94760068
:100040000C94D8210C9476000C9448220C94222213
:100050000C9476000C9476000C9476000C94760048
:100060000C9476000C947600CDCCCC3D0AD7233C82
:1000700017B7D13877CC2B329595E6241FB14F0AAC
:10008000000020410000C84200401C4620BCBE4C7D
:10009000CA1B0E5AAEC59D74E324722611241FBEDE
:1000A000CFEFD8E0DEBFCDBF22E0ACEAB1E001C0C7
:1000B0001D92A937B207E1F711E0A0E0B1E0EAE450
:1000C000F6E502C005900D92AC3AB107D9F710E001
:1000D000CDE4D0E004C02197FE010E942029CC3459
:1000E000D107C9F70E9423250C94182B0C9400000B
:1000F000AF92BF92CF92DF92EF92FF920F931F9336
:10010000CF93DF936C017B018B01040F151FEB0173
:100110005E01AE18BF08C017D10759F06991D6012A
:10012000ED91FC910190F081E02DC6010995892B9C
:1001300079F7C501DF91CF911F910F91FF90EF905B
:10014000DF90CF90BF90AF900895FC01538D448D08
:10015000252F30E0842F90E0821B930B541710F072
:10016000CF96089501970895FC01918D828D98177F
:1001700061F0A28DAE0FBF2FB11D5D968C91928D57
:100180009F5F9F73928F90E008958FEF9FEF089588
:100190002FB7F8948091B5019091B601A091B70165
:1001A000B091B8012FBF8093C1019093C201A09379
:1001B000C301B093C40189EB91E00E94B40097FFA2
:1001C00026C02FB7F8948091B5019091B601A09107
:1001D000B701B091B8012FBF4091C1015091C20148
:1001E0006091C3017091C401841B950BA60BB70BE2
:1001F0004091BD015091BE016091BF017091C0015D
:1002000084179507A607B707B0F28FEF9FEF089501
:10021000FC01918D828D981731F0828DE80FF11DD0
:10022000858D90E008958FEF9FEF0895FC01918DEB
:10023000228D892F90E0805C9F4F821B91098F73E4
:100240009927089589EB91E00E94160121E0892BFE
:1002500009F420E0822F089580E090E0892B29F0B6
:100260000E94220181110C9400000895FC01A48DCC
:10027000A80FB92FB11DA35ABF4F2C91848D90E0C8
:1002800001968F739927848FA689B7892C93A089AB
:10029000B1898C91837080648C93938D848D981335
:1002A00006C00288F389E02D80818F7D80830895C8
:1002B000EF92FF920F931F93CF93DF93EC0181E0B6
:1002C000888F9B8D8C8D98131AC0E889F98980815D
:1002D00085FF15C09FB7F894EE89FF896083E88990
:1002E000F98980818370806480839FBF81E090E082
:1002F000DF91CF911F910F91FF90EF900895F62E0F
:100300000B8D10E00F5F1F4F0F731127E02E8C8DA8
:100310008E110CC00FB607FCFACFE889F9898081ED
:1003200085FFF5CFCE010E943601F1CFEB8DEC0FAA
:10033000FD2FF11DE35AFF4FF0829FB7F8940B8F0A
:10034000EA89FB8980818062CFCFCF93DF93EC0174
:10035000888D8823B9F0AA89BB89E889F9898C91AD
:1003600085FD03C0808186FD0DC00FB607FCF7CF69
:100370008C9185FFF2CF808185FFEDCFCE010E9469
:100380003601E9CFDF91CF9108956F3FB1F0E62FAD
:10039000E295EF7044E0E49F90011124DC01ED91BF
:1003A000FC91E20FF31F6F70B8E06B9FC001112446
:1003B00062817381860F971F089590E080E0089511
:1003C000CF93C82FCB016C2F45960E94C5012FEF0C
:1003D000009711F0FC012581BC018C2F922FCF9149
:1003E0000895CF93DF93EC0188819981DC01ED9131
:1003F000FC910190F081E02D09952A813B81820FCB
:10040000931F9B838A83DF91CF910895982F803328
:100410006CF08A3324F08F3524F08B3724F481E09C
:10042000089581341CF081E09B350CF080E0089544
:10043000CF93DF93EC0188819981DC01ED91FC91F0
:100440000280F381E02D09952A813B81820F931F61
:100450009B838A83DF91CF9108958F929F92AF9271
:10046000BF92CF92DF92EF92FF920F931F93CF93A1
:10047000DF93CDB7DEB766970FB6F894DEBF0FBE39
:10048000CDBF6C018E01095E1F4F78018AE0882E76
:10049000912CA12CB12CCB01BA01A50194010E9491
:1004A000FE28942F852F605DF80162938F01A901CA
:1004B000692F782F411551056105710561F7A70175
:1004C0004E1B5F0BBF01C6010E94180266960FB655
:1004D000F894DEBF0FBECDBFDF91CF911F910F917A
:1004E000FF90EF90DF90CF90BF90AF909F908F9054
:1004F0000895FC018485811114C0A781B085818590
:1005000092852FEF3FEFA817B90730F4CD01019680
:10051000908787832C9130E037FD20E0238781E0AE
:100520008487838508951F93CF93DF93EC01162F63
:100530000E947902811306C01C8681E0DF91CF9171
:100540001F91089580E0FACF0F931F93CF93DF930D
:100550008C01EB018991882369F0C8010E9479021E
:10056000882379F0FE013197908198130DC0F8012E
:100570001486F0CF90E080E0DF91CF911F910F9132
:10058000089582E090E0F8CF83E090E0F5CFCF933C
:10059000DF93EC01CE010E9479028B304CF489305C
:1005A0005CF4882359F081E08E8390E080E00BC0FA
:1005B0008D3011F08032B9F71C86ECCF8E8181111D
:1005C00005C081E090E0DF91CF91089582E090E056
:1005D000FACF2F923F924F925F926F927F928F92BB
:1005E0009F92AF92BF92CF92DF92EF92FF920F93C2
:1005F0001F93CF93DF9300D000D000D0CDB7DEB7EC
:100600001C014A015B0186E0D1011A968C9320E817
:1006100036E948E15BE4CB01B4010E94E52887FD9F
:1006200084C004E110E060E2462E512C1E821D823F
:10063000F801E058FF4F2591359145915491C5013E
:10064000B4010E94E52887FD13C0F801E859FF4F67
:100650002591359145915491C501B4010E941A2705
:100660004B015C01ED81FE81E40DF51DFE83ED8300
:1006700055944794045011090C3FFFEF1F07C1F632
:1006800077247A9420E030E0A901C501B4010E94EA
:10069000E52818160CF051C02CEA35EC47E257E378
:1006A000C501B4010E94B42618160CF446C0272DCB
:1006B00034E0230280011124F12CE12CC801885977
:1006C0009F4F6C0100581F4F9FEF791609F435C0FA
:1006D000F601EE0DFF1D659175918591949120E0D5
:1006E00030E040E251E40E941A27A50194010E94E3
:1006F000E52818169CF4F801EE0DFF1D25913591A3
:1007000045915491C501B4010E941A274B015C0127
:10071000AD81BE81A419B509BE83AD8355944794BC
:100720007A94B4E0EB1AF108CFCF30E2432E512C8B
:1007300045E0742E1E821D82A5CF2D813E81F101E0
:1007400031872087C501B4010E94B62869837A8366
:100750008B839C83D1016D937D938D939C93139791
:100760002B013C0190E4C92E92E4D92E9FE0E92EA2
:10077000F12CBAE04B16510461047104C8F0C701B2
:10078000B6012AE030E040E050E00E94FE28690116
:100790007A01F101828581508287C301B2012AE08A
:1007A00030E040E050E00E94FE2829013A01E1CF0C
:1007B00069817A818B819C810E94B9269B01AC0161
:1007C000C501B4010E9442284B015C01C701B6017A
:1007D0000E94B9269B01AC01C501B4010E941A27F1
:1007E0002B013C010E94B6284B015C010E94B926F6
:1007F0009B01AC01C301B2010E9442289B01AC01E4
:100800000E9443280E94B628860E971EA81EB91E75
:100810008C149D04AE04BF0430F5D10114968D9262
:100820009D92AD92BC9217978AE0C82ED12CE12CF4
:10083000F12CD10114966D917D918D919C9117971A
:10084000A70196010E94FE28672B682B692B89F56A
:10085000F101828518166CF524833583468357830E
:1008600081508287E6CFF1011482158216821782A9
:1008700089819A81AB81BC810196A11DB11D8083C4
:100880009183A283B3832D813E812115310561F2CD
:100890000A97A105B10540F2C901019691878087A9
:1008A00081E090E0A0E0B0E080839183A283B383F5
:1008B000BBCF26960FB6F894DEBF0FBECDBFDF913B
:1008C000CF911F910F91FF90EF90DF90CF90BF904D
:1008D000AF909F908F907F906F905F904F903F90E0
:1008E0002F900895DC018D919C910097E1F0FC011F
:1008F000238130E0DB0112964D915C911397241710
:10090000350769F4ED91FC91DC0114962E0F3F1F21
:10091000E217F30741F051914D915417C9F3FC01CF
:1009200080819181E2CF08950F931F93FB01008195
:10093000118122813381FC0101831283238334835B
:10094000568345831F910F9108954F925F926F9246
:100950007F928F929F92AF92BF92CF92DF92EF924F
:10096000FF920F931F93CF93DF93EB01DC012C9148
:100970002B32D9F12D32D1F50196FF24F394FC01ED
:10098000208130ED320F3A3018F02E3209F042C19A
:100990008C0160E070E0CB01F801219130ED832EF5
:1009A000820E39E0381520F16A3949E97407840765
:1009B00049E1940738F5AAE0B0E09B01AC010E9440
:1009C000F127912CB12CA12C240135014094509495
:1009D00060947094461657066806790698F0680D7C
:1009E000791D8A1D9B1D8F01D7CF0196F12CC7CF92
:1009F000211108C0FF20E9F161307105810550E83F
:100A00009507A0F0E12CBAE08B2E912CA12CB12CF3
:100A10006115710530E883079105B0F1A5019401D6
:100A20000E94FE28CA01B901E394F2CF2C812078FC
:100A30002A602C839B01AC0188279927DC01821B4B
:100A4000930BA40BB50B88839983AA83BB838F2D4B
:100A5000DF91CF911F910F91FF90EF90DF90CF909A
:100A6000BF90AF909F908F907F906F905F904F90CE
:100A700008952C81207828602C83688379838A8369
:100A80009B83FF24F394E3CFF801D8012D918D01CE
:100A900030ED320F3A3010F4E394F6CF2E3201F5F8
:100AA0008F010F5F1F4FF8010F5F1F4F2081A0EDD7
:100AB000DA2ED20EB9E0BD1598F06C3CECEC7E0756
:100AC000ECE08E07910578F7AAE0B0E09B01AC015D
:100AD0000E94F1276D0D711D811D911DEA94E3CFD8
:100AE00020812F7D10E000E0253409F05BC02181DA
:100AF0002D32D1F53296CC24C394DF0110E000E012
:100B00002E2D0E2C000C330B5AE0B52EFD01DD907E
:100B100040ED4D0D4A3008F040C0B09EA001B19E9E
:100B2000500D11240D2DDD0C110B00531109040F74
:100B3000151FA801420F531F473251053CF38C810A
:100B4000CC20C9F040E050E060E070E8F11003C054
:100B500040E050E0BA0180788C608C8348835983F0
:100B60006A837B83FC2C73CF2B3219F03196C12C16
:100B7000C4CF3296FCCF40E050E060E87FEFF11048
:100B800004C040E050E060E87FE780788C608C83B0
:100B9000488359836A837B8374CFCC2019F01195E5
:100BA000019511092081211135C00E0D111DE7FCA1
:100BB0001A950E94B92630E8C32E30E0D32E1016C5
:100BC00011063CF011950195110948E6C42E40E04C
:100BD000D42EE12C0115110591F000FF0CC024E08A
:100BE000E29EF0011124EC0DFD1D259135914591FA
:100BF00054910E941A2715950795E394EBCFF110B5
:100C000090582C8120782C602C83688379838A8388
:100C10009B8337CFF12C1BCFCF92DF92EF92FF92C5
:100C2000CF93DF9300D000D01F92CDB7DEB7FC0189
:100C300084818F778630D9F040F48430A9F18530F3
:100C400009F43FC090E080E014C08A30F1F08C30AD
:100C500009F43FC08830B1F780819181A281B381CE
:100C6000811520E89207A105B10560F702C08081D7
:100C700090E00F900F900F900F900F90DF91CF9119
:100C8000FF90EF90DF90CF90089580819181A281B5
:100C9000B381AC01BD0150586F4F7F4F41155105D5
:100CA0006140710578F6E5CF808191811D82BE019A
:100CB0006F5F7F4F0E94A504CE0101960E940C0633
:100CC000D8CF808191811D82BE016F5F7F4F0496D6
:100CD000F1CFC080D180E280F38020E030E040E0BE
:100CE00057ECC701B6010E94E52887FDABCF20E095
:100CF0003EEF4FEF56E4C701B6010E94B426181626
:100D00000CF4A0CFC701B6010E94AF28CB01B1CF30
:100D10001F93CF93DF93EC01CB011B81612F45968D
:100D20000E94C501998388831A83009719F0FC01FA
:100D300085818B83DF91CF911F9108950F931F932E
:100D4000CF93DF93CDB7DEB72C970FB6F894DEBF05
:100D50000FBECDBFDC01ED91FC9111973097B9F436
:100D600018861F828FEF89872F81388549855A859C
:100D70006B857C8580E090E02C960FB6F894DEBF02
:100D80000FBECDBFDF91CF911F910F9108951296A5
:100D90000D911C91B80180810E94E00169837A83E2
:100DA0008B839C831E830D8386E0FE013196DE01DA
:100DB000179601900D928A95E1F7D6CFCF93DF93E6
:100DC000CDB7DEB72C970FB6F894DEBF0FBECDBF00
:100DD000FC012481358180819181A281B381898345
:100DE0009A83AB83BC833E832D8386E0FE013196DC
:100DF000DE01179601900D928A95E1F72F813885D3
:100E000049855A856B857C8580E090E02C960FB6ED
:100E1000F894DEBF0FBECDBFDF91CF910895FC01E6
:100E20002481207820622483009719F02FEF2083FB
:100E300021830895FC01848185FF02C0CF010895BC
:100E400080E090E00895FC019289915084E0989FA1
:100E500090011124A089B189A20FB31F1296ED91C0
:100E6000FC9113973097E9F011962C9111978C9182
:100E70002817B8F481E0820F11968C9388E0289FA0
:100E8000A0011124E40FF51F309759F014828FEF61
:100E9000858317821682BF01892F8295807F820FFA
:100EA000089560E070E08FEF0895DF92EF92FF9277
:100EB0000F931F93CF93DF93EC017B01D12C6889B3
:100EC00079898A89D816E0F484E0D89E80011124BB
:100ED000060F171FD80112966D917C91611571054F
:100EE00041F0D701ED91FC910280F381E02DC70123
:100EF0000995F8011382128210821182D394DFCFF8
:100F00001A8A8FEF8C8BC617D70761F0D701ED9146
:100F1000FC910280F381E02DC7010995D98BC88B24
:100F200084E08B8BDF91CF911F910F91FF90EF9019
:100F3000DF900895DB01ED91FC9111970280F38120
:100F4000E02DBC01CD0109940F931F93CF93DF9344
:100F5000EC016881798105960E9455071A82088103
:100F600019818B819C81009749F0FC01208131819E
:100F70003C832B83B8010E949A07F3CFDF91CF9176
:100F80001F910F9108950F931F93CF93DF93EC015F
:100F9000088119818B819C81009749F0FC01208197
:100FA00031813C832B83B8010E949A07F3CF68817B
:100FB0007981CE010596DF91CF911F910F910C940D
:100FC0005507CF93DF93EC01E881F981B0E0A0E011
:100FD0003097F9F09F012C5F3F4F62177307A1F420
:100FE000928191509283911114C0808191811097C8
:100FF00041F08D939C93BA01CF01DF91CF910C9476
:101000009A0799838883F7CFDF010190F081E02D63
:10101000DFCFDF91CF9108950F931F93CF93DF938D
:10102000EC018B018C8180FF0BC0FB014081518161
:10103000688179816C5F7F4FC80103960E94E10748
:101040008C81807651F0209741F0B801CE01DF917C
:10105000CF911F910F910C945308DF91CF911F9165
:101060000F910895CF93DF93EC010E940C088C81BF
:1010700080788C83DF91CF910895CF93DF93EC013B
:1010800088819981009721F06A817B810E943208D2
:10109000EA81FB8180E0309719F0828191E0892715
:1010A000DF91CF9108958F929F92AF92BF92CF928E
:1010B000DF92EF92FF920F931F93CF93DF936C0118
:1010C0008B01FC01C0815B01F5E1AF0EB11C4B014E
:1010D00083E0880E911CCF3FF9F06C2FC5010E9470
:1010E000C5017C01FC01D581848187FF09C0F8011D
:1010F00040815181F70166817781C4010E94E10737
:10110000B801C7010E943208F801818DF70185837B
:10111000F801C18FCD2FDFCFF601C083C183DF91EE
:10112000CF911F910F91FF90EF90DF90CF90BF90E4
:10113000AF909F908F900895EF92FF920F931F931F
:10114000CF93DF937C018B01EA016F3F710509F0BA
:10115000B0F4E881F9810480F581E02DAB014B5FAB
:101160005F4FBC01CE010995009749F0FC01038354
:10117000DF91CF911F910F91FF90EF900895E8813B
:10118000F9810280F381E02DB701CE01099590E04D
:1011900080E0EECFFF920F931F93CF93DF93EC018C
:1011A000F62E8A819B810097C9F06C817D81FC01BC
:1011B00023812617170691F408811981F8014081CF
:1011C0005181660F771F6F5F7F4F0E949C080097C9
:1011D00019F421E0F80122839B838A838A819B8111
:1011E000009759F02C813D81A9014F5F5F4F5D83CE
:1011F0004C83820F931FFC01F482DF91CF911F91EA
:101200000F91FF9008959F92AF92BF92CF92DF927D
:10121000EF92FF920F931F93CF93DF9300D000D0F4
:101220001F92CDB7DEB78C010E947902D82EF8014B
:101230001486F12CE12C60EFC62EC8010E947902C1
:10124000F8011486D81609F4B3C0811113C082E0E6
:1012500090E00F900F900F900F900F90DF91CF9133
:101260001F910F91FF90EF90DF90CF90BF90AF90C4
:101270009F9008958C3509F099C0C8010E947902A9
:10128000882329F3E4E2F1E0853709F083C0F8010F
:10129000148654E0952EB12CA12CC8010E9479022D
:1012A0008823A9F2813434F48053803130F083E014
:1012B00090E0CFCF8F7D8753F8CF44E0AA0CBB1CC2
:1012C0004A95E1F7A82AF80114869A949110E5CF7F
:1012D000C501985D8115944020F47501F3E0FF226B
:1012E000ACCFC5019C5D81159440A8F483E0B82281
:1012F000B701762F6627770F770F6A297B2990E051
:1013000080E00196603871058105910540F4C801BF
:101310000E94CA0892CFB50190E080E0F3CF198215
:10132000262F2F7320682A8326E096958795779538
:1013300067952A95D1F76032710580F4606C6B83F4
:101340005E01E4E0AE0EB11CF50162915F0166231F
:1013500009F473CFC8010E94CA08F6CF262F2F7355
:1013600020682B8386E0769567958A95E1F7603152
:10137000710538F4606E6C835E01F5E0AF0EB11C50
:10138000E3CF60686C83CD825E0126E0A20EB11CC3
:10139000DBCF32969081992309F489CF8913F9CF55
:1013A0008181882309F483CFF8011486682FAFCF99
:1013B00082819381892B19F484E090E04ACF90E0F8
:1013C00080E047CFAF92BF92CF92DF92EF92FF9231
:1013D0000F931F93CF93DF9300D000D0CDB7DEB72C
:1013E0008C01DC011296ED91FC91139714968D916E
:1013F0009C911597E80FF91F1482ED90FC901197BE
:101400001496AD90BC9015971296CD90DC90C601C5
:1014100004969A838983BC82AB82BE016F5F7F4F43
:10142000C70103960E947204009749F5F7014081B5
:101430005181B501C6010E949C08009721F421E06A
:10144000D70112962C93D801ED91FC912381348120
:10145000DC012D933C9394838383F80113821282E1
:101460000F900F900F900F90DF91CF911F910F91E0
:10147000FF90EF90DF90CF90BF90AF900895DC0188
:1014800012962C9112972F5F12962C93E9CFCF933F
:10149000DF93EC0190E080E0CF3FD10509F088F4C4
:1014A000CB01BE016B5F7F4FDC01ED91FC910190A0
:1014B000F081E02D0995009721F0FC01C38321E024
:1014C0002283DF91CF910895CF92DF92EF92FF9226
:1014D0000F931F93CF93DF9300D000D0CDB7DEB72B
:1014E0007C0149835A836B837C836901BE016F5FF2
:1014F0007F4F0E947204009789F0FC0122812F5FC8
:1015000022830F900F900F900F90DF91CF911F913A
:101510000F91FF90EF90DF90CF9008950B811C8189
:10152000B601C8010E94470A009759F3E981FA8180
:10153000DC011496A8014E0F5F1FE417F50719F0A0
:1015400021912D93FACFFC01E00FF11F1482F701D6
:1015500020813181FC0131832083F70191838083D5
:10156000D0CFAF92BF92CF92DF92EF92FF920F93C4
:101570001F93CF93DF9300D000D01F92CDB7DEB77B
:1015800029833A834B835C836D83E980FA80CB8027
:10159000DC80DC01ED91FC91A6014E0D5F1D3097C2
:1015A00059F123812C151D0479F457019F012C5FFB
:1015B0003F4F4A155B0561F0D5017D915D01D90171
:1015C0006D919D017617A9F30190F081E02DE7CF91
:1015D00082818F5F8283CF010F900F900F900F90C9
:1015E0000F90DF91CF911F910F91FF90EF90DF90BF
:1015F000CF90BF90AF900895B8015C01C6010E94E2
:10160000470AFC01009739F30496A7014C0D5D1DB4
:10161000E416F50639F0D7012D917D01DC012D93FB
:10162000CD01F6CFDF01AC0DBD1D14961C92D50186
:101630008D919C91119791838083ED93FC93CBCFF7
:101640006F927F928F929F92AF92BF92CF92DF92D2
:10165000EF92FF920F931F93CF93DF93CDB7DEB737
:101660002B970FB6F894DEBF0FBECDBF6C0186E09E
:10167000FB01DE01119601900D928A95E1F7D601EA
:101680001296AD90BC901397ED90FC9009811A8151
:101690007B806C808D809E80E114F10489F0B5011F
:1016A000C7010E9432080115110551F08A9489285A
:1016B00031F5F7018481807884608483118300830D
:1016C000D6011296ED91FC9180E0309719F082815D
:1016D00091E089272B960FB6F894DEBF0FBECDBFE1
:1016E000DF91CF911F910F91FF90EF90DF90CF90FE
:1016F000BF90AF909F908F907F906F900895202F14
:1017000018870F83472D79866A861B86D5010D9130
:101710001C913885562D60E0C50103960E94B10AE0
:101720009C01892B21F481E0F5018283C9CFF70167
:10173000948190789560948331832083C1CFFC019C
:1017400001900020E9F73197AF01481B590BBC010C
:1017500089EB91E00C947800CF93DF930E949F0B6C
:10176000EC0185E391E00E949F0B8C0F9D1FDF91A0
:10177000CF910895FB0101900020E9F73197AF0167
:10178000461B570B0C9418021F93CF93DF93E4E290
:10179000F1E01281112379F0329621816213F9CFA1
:1017A000EC016CE50E94F101612FCE01DF91CF9138
:1017B0001F910C94F1016111F9CF68E371E0DF91A1
:1017C000CF911F910C94BA0BCF92DF92EF92FF92C0
:1017D0000F931F93CF93DF938C016B017A0162E229
:1017E0000E94F101E601EC0CFD1CCE15DF0529F08D
:1017F0006991C8010E94C40BF8CF62E2C801DF9171
:10180000CF911F910F91FF90EF90DF90CF900C94AC
:10181000F101DF92EF92FF920F931F93CF93DF932B
:1018200000D000D0CDB7DEB76115710581F460E05E
:1018300070E08FEF9D2D0F900F900F900F90DF9124
:10184000CF911F910F91FF90EF90DF9008957A0153
:101850008B01BA01FC0180810E94E00169837A83D7
:101860008B839C83E981FA81309709F3A681B78144
:10187000F80101900020E9F731979F01201B310BFF
:1018800090E080E0109741F0FD0101900020E9F721
:10189000CF0101978A1B9B0B2817390769F4C801F0
:1018A000A901400F511F4817590761F0FC01319100
:1018B000CF012D913217B9F3B701CE0101960E94E5
:1018C0008806D0CF69817A818B81DC80B3CF0F937A
:1018D0001F93CF93DF93EB018A010E941A070097B1
:1018E00051F0A801BE010E94090CCB01DF91CF91FC
:1018F0001F910F91089590E080E0F8CFFC014381A3
:1019000054818181928165817681009711F00C94D8
:10191000670C90E080E00895FC0142815381808152
:101920009181009739F00E94090C81E0672B09F43E
:1019300080E0089570E060E0F8CFDC0111967C93C0
:101940006E93F0E0E0E06115710539F0FB01019064
:101950000020E9F73197E61BF70B1396FC93EE9303
:10196000129715965C934E93149708954F925F9239
:101970006F927F928F929F92AF92BF92CF92DF929F
:10198000EF92FF920F931F93CF93DF93CDB7DEB704
:10199000A1970FB6F894DEBF0FBECDBF7C018B01BF
:1019A000DC0114968C9114978F77883009F488C1E4
:1019B000E8F4843009F444C148F4833009F475C173
:1019C0006FE371E0C8010E94BA0BF5C0853009F4DD
:1019D00048C18630A9F78C9164E471E0811102C09E
:1019E00069E471E0C8010E94BA0B45C18C3009F46A
:1019F00040C0C8F48A3021F7CD90DD90ED90FC9086
:101A0000B701A601F7FE0BC06DE2C8010E94F1010B
:101A100044275527BA014C195D096E097F09C80191
:101A20000E942D0228C1803209F4CFC0803441F6D3
:101A30006BE5C8010E94F101F701F080FFEFFF168E
:101A400009F4BEC0D80114968D919C916F2D4596D6
:101A50000E94C5017C01B8010E94B60CF701F58017
:101A6000FFEFFF1609F4ACC06CE2C8010E94F1015F
:101A7000E5CFF70180809180A280B380A501940119
:101A8000C501B4010E94B42681119ACF20E030E054
:101A9000A901C501B4010E94B426882379F0A501EB
:101AA0009401C501B4010E9443289B01AC01C5010A
:101AB000B4010E94B426882309F482CF20E030E0EC
:101AC000A901C501B4010E94B42687FF08C06DE2D8
:101AD000C8010E94F101B7FAB094B7F8B0946E0152
:101AE000F7E1CF0ED11CB501A401C6010E94E902A5
:101AF0004F89588D698D7A8DC8010E942D02F9A0F9
:101B0000FF2091F16B8D7C8D8D8D9E8D4E0121E19D
:101B1000820E911CEF2C54012AE0422E512C612C94
:101B2000712CEA94AFEFEA1659F0A30192010E94DA
:101B3000FE28605DF40162934F01B901CA01F1CF43
:101B40008F2D90E0BC0160957095F501E81BF90BB5
:101B500031978EE2808344275527461B570B6A0D29
:101B60007B1DC8010E9418028F8D98A1892B19F145
:101B700065E6C8010E94F101EF8CF8A0C701F7FEED
:101B800008C06DE2C8010E94F101882799278E19CB
:101B90009F09F6012AE030E0B9010E94EA28805D41
:101BA0008293CB010097C1F7A6014E1B5F0BBF01CB
:101BB000C8010E941802D80112968D919C915EC0B6
:101BC0006DE5C8010E94F101F6CF6BE7C8010E94E4
:101BD000F101F701F080FFEFFF1681F1D8011496B3
:101BE0008D919C916F2D45960E94C5017C01FC0151
:101BF000A680B78062E2C8010E94F1016501D601AA
:101C00006D916D01662321F0C8010E94C40BF7CFCE
:101C100062E2C8010E94F1016AE3C8010E94F10179
:101C2000B801C7010E94B60CF701F580FFEFFF165F
:101C300029F06CE2C8010E94F101CDCF6DE7C1CF60
:101C4000F7016081718141E050E0CE0101960E9470
:101C50009D0C4B815C8169817A81C8010E94E40BF3
:101C6000AACFED91FC91438150E0BF016C5F7F4FA3
:101C7000C8010E94E40BF80182819381A1960FB6FE
:101C8000F894DEBF0FBECDBFDF91CF911F910F91B2
:101C9000FF90EF90DF90CF90BF90AF909F908F908C
:101CA0007F906F905F904F900895ED91FC914381EC
:101CB00050E0BF016C5F7F4FC8010E941802DBCF6C
:101CC0004D915D916D917C91AACE8F929F92AF9232
:101CD000BF92CF92DF92EF92FF92CF93DF9300D02B
:101CE00000D000D0CDB7DEB77B010E947E0CFC0196
:101CF000D7012D913C91892B09F452C094819F7793
:101D0000983009F465C058F4943009F441C0963015
:101D100009F046C0408150E070E060E05DC09A305C
:101D200009F441C09C30E1F5C080D180E280F380AD
:101D3000B901330F880B990B0E94BB264B015C0144
:101D4000AC019B01C701B6010E94B42687FD53C0B8
:101D5000A5019401C701B6010E94E5281816ACF54B
:101D600022E030E081E02130310509F080E0269664
:101D70000FB6F894DEBF0FBECDBFDF91CF91FF90BD
:101D8000EF90DF90CF90BF90AF909F908F9008958D
:101D90006081718141E050E0CE0101960E949D0C6E
:101DA00030E020E0DFCF4081518162817381C90141
:101DB000330FAA0BBB0B481759076A077B07DCF0E8
:101DC00084179507A607B7075CF221E030E0CACF79
:101DD0004081518162817381C901330FAA0BBB0B12
:101DE000481759076A077B0730F084179507A6073D
:101DF000B70758F7B5CF24E030E0B4CFCF93DF93E7
:101E0000CDB7DEB72C970FB6F894DEBF0FBECDBFAF
:101E1000DC01ED91FC91309759F18481082E000C82
:101E2000990B80959095492F441F4427441F668144
:101E3000778150E0CE0101960E949D0C86E0FE0164
:101E40003196DE01179601900D928A95E1F72F8168
:101E5000388549855A856B857C8580E090E02C9695
:101E60000FB6F894DEBF0FBECDBFDF91CF910895BE
:101E700018861F821A86198681E090E09C878B87DE
:101E8000E6CF0F931F93CF93DF93EC018881998165
:101E9000009759F02A813B812617370730F081E0FF
:101EA000DF91CF911F910F9108958B016F5F7F4F4D
:101EB0000E944B2A009759F0998388831B830A83D9
:101EC0002C813D81232B59F7FC011082E8CF80E063
:101ED000E7CFEF92FF920F931F93CF93DF9361159C
:101EE000710541F480E0DF91CF911F910F91FF9038
:101EF000EF90089541155105B1F07B01EC010C8183
:101F00001D81040F151FB8010E94410F882351F352
:101F1000288139818C819D81B701820F931F0E9496
:101F2000112B1D830C8381E0DECFCF93DF93EC0177
:101F3000EAA1FBA1E80FF91F1282BC016E5F7F4F7F
:101F400081F0FB0101900020E9F73197AF01461BBA
:101F5000570B888199810E94690F882311F01BA279
:101F60001AA28AA19BA1DF91CF9108951F93CF93CD
:101F7000DF93EC01162F8AA19BA101968097B8F4FC
:101F80008AA19BA19C012F5F3F4F3BA32AA38C0FEB
:101F90009D1FFC01128321E030E08CA19DA1820FE6
:101FA000931F9DA38CA3DF91CF911F910895CE0124
:101FB0000E94950F892B21F330E020E0EECFBF92F5
:101FC000CF92DF92EF92FF920F931F93CF93DF9305
:101FD000EC016A018B017B01E40EF51EE016F106AF
:101FE000D1F0F801B1908F018AA19BA10196809751
:101FF00060F48AA19BA19C012F5F3F4F3BA32AA3C2
:102000008C0F9D1FFC01B282E9CFCE010E94950F7B
:10201000892B79F3E3CF4CA15DA14C0D5D1D5DA330
:102020004CA3DF91CF911F910F91FF90EF90DF9024
:10203000CF90BF9008958F929F92AF92BF92CF9210
:10204000DF92EF92FF920F931F93CF93DF93CDB761
:10205000DEB766970FB6F894DEBF0FBECDBF6C013A
:102060008E01095E1F4F78018AE0882E912CA12CE9
:10207000B12CCB01BA01A50194010E94FE28942F36
:10208000852F605DF80162938F01A901692F782F78
:10209000411551056105710561F7A7014E1B5F0BE5
:1020A000BF01C6010E94DF0F66960FB6F894DEBF2F
:1020B0000FBECDBFDF91CF911F910F91FF90EF9099
:1020C000DF90CF90BF90AF909F908F900895FB01CD
:1020D00001900020E9F73197AF01461B570B0C9494
:1020E000DF0F1F93CF93DF93E4E2F1E0128111231E
:1020F00079F0329621816213F9CFEC016CE50E94F0
:10210000B60F612FCE01DF91CF911F910C94B60FC6
:102110006111F9CF68E371E0DF91CF911F910C94C9
:102120006710CF92DF92EF92FF920F931F93CF939E
:10213000DF938C016B017A0162E20E94B60FE60127
:10214000EC0CFD1CCE15DF0529F06991C8010E9439
:102150007110F8CF62E2C801DF91CF911F910F910A
:10216000FF90EF90DF90CF900C94B60F4F925F925C
:102170006F927F928F929F92AF92BF92CF92DF9297
:10218000EF92FF920F931F93CF93DF93CDB7DEB7FC
:10219000A1970FB6F894DEBF0FBECDBF7C018B01B7
:1021A000DC0114968C9114978F77883009F488C1DC
:1021B000E8F4843009F444C148F4833009F475C16B
:1021C0006FE371E0C8010E946710F5C0853009F423
:1021D00048C18630A9F78C9164E471E0811102C096
:1021E00069E471E0C8010E94671045C18C3009F4B0
:1021F00040C0C8F48A3021F7CD90DD90ED90FC907E
:10220000B701A601F7FE0BC06DE2C8010E94B60F30
:1022100044275527BA014C195D096E097F09C80189
:102220000E941B1028C1803209F4CFC0803441F6CF
:102230006BE5C8010E94B60FF701F080FFEFFF16B3
:1022400009F4BEC0D80196968D919C916F2D45964C
:102250000E94C5017C01B8010E94B610F701F5800B
:10226000FFEFFF1609F4ACC06CE2C8010E94B60F84
:10227000E5CFF70180809180A280B380A501940111
:10228000C501B4010E94B42681119ACF20E030E04C
:10229000A901C501B4010E94B426882379F0A501E3
:1022A0009401C501B4010E9443289B01AC01C50102
:1022B000B4010E94B426882309F482CF20E030E0E4
:1022C000A901C501B4010E94B42687FF08C06DE2D0
:1022D000C8010E94B60FB7FAB094B7F8B0946E0177
:1022E000F7E1CF0ED11CB501A401C6010E94E9029D
:1022F0004F89588D698D7A8DC8010E941B10F9A0F5
:10230000FF2091F16B8D7C8D8D8D9E8D4E0121E195
:10231000820E911CEF2C54012AE0422E512C612C8C
:10232000712CEA94AFEFEA1659F0A30192010E94D2
:10233000FE28605DF40162934F01B901CA01F1CF3B
:102340008F2D90E0BC0160957095F501E81BF90BAD
:1023500031978EE2808344275527461B570B6A0D21
:102360007B1DC8010E94DF0F8F8D98A1892B19F169
:1023700065E6C8010E94B60FEF8CF8A0C701F7FE12
:1023800008C06DE2C8010E94B60F882799278E19F0
:102390009F09F6012AE030E0B9010E94EA28805D39
:1023A0008293CB010097C1F7A6014E1B5F0BBF01C3
:1023B000C8010E94DF0FD80194968D919C915EC058
:1023C0006DE5C8010E94B60FF6CF6BE7C8010E9409
:1023D000B60FF701F080FFEFFF1681F1D801969656
:1023E0008D919C916F2D45960E94C5017C01FC0149
:1023F000A680B78062E2C8010E94B60F6501D601CF
:102400006D916D01662321F0C8010E947110F7CF14
:1024100062E2C8010E94B60F6AE3C8010E94B60FCB
:10242000B801C7010E94B610F701F580FFEFFF1653
:1024300029F06CE2C8010E94B60FCDCF6DE7C1CF85
:10244000F7016081718141E050E0CE0101960E9468
:102450009D0C4B815C8169817A81C8010E94911039
:10246000AACFED91FC91438150E0BF016C5F7F4F9B
:10247000C8010E949110F80184A195A1A1960FB600
:10248000F894DEBF0FBECDBFDF91CF911F910F91AA
:10249000FF90EF90DF90CF90BF90AF909F908F9084
:1024A0007F906F905F904F900895ED91FC914381E4
:1024B00050E0BF016C5F7F4FC8010E94DF0FDBCF90
:1024C0004D915D916D917C91AACECB01BA010C9496
:1024D0004B2ACF93DF93EC0188819981009711F00B
:1024E0000E94C229198218821D821C821B821A82B4
:1024F000DF91CF910895EF92FF920F931F93CF93A7
:10250000DF93EC017B018A01BA010E94410F811126
:102510000BC0CE010E946912CE01DF91CF911F91B5
:102520000F91FF90EF9008951D830C83B701888170
:1025300099810E94112BF0CFFC011182108213822D
:10254000128215821482FB0101900020E9F7319775
:10255000AF01461B570B0C947B12FC0180819181CB
:10256000009711F00C94C2290895CB010C94C22954
:102570008F929F92AF92BF92CF92DF92EF92FF9293
:102580000F931F93CF93DF936C018B01DB0159965F
:10259000FC90BFEFFB1621F16F2DC80145960E94FC
:1025A000C501EC018D81F801818F209709F496C057
:1025B0001C828FEF8D831F821E82D60111966C9133
:1025C0006F3F09F49FC0C80145960E94C501FC01F8
:1025D000F582D6011196FC92BE018F2D9D8084C09C
:1025E0005B01F5E0AF0EB11CDB01ED90FC901197A3
:1025F00057968C91882349F0C5010E942307C62F66
:10260000D72F209711F0F82ED8CFF801C789908DD9
:10261000C91325C0C03109F461C0CC0F6589768922
:10262000D701ED91FC91B4E0CB9FA0011124A61637
:10263000B70609F04BC00190F081E02DBA01C70147
:102640000995009709F44AC020E1F501DC010190E9
:102650000D922A95E1F7F801968B858BC08FD801F2
:102660005596CD91DC91569757968C91579721E0CE
:10267000280F57962C93B4E08B9FC0011124C80FEC
:10268000D91F90E1892E203111F48FE0882EE8E0E7
:102690008E9EB0011124D701ED91FC910190F08143
:1026A000E02DC70109959B838A83892B09F4812C2E
:1026B00088821982CD2B91F0C5010E942307C62F75
:1026C000D72FF82E209709F078CF08C00480F58125
:1026D000E02DC7010995009709F0BDCF81E0F80111
:1026E000828360E070E08FEF992DDF91CF911F9191
:1026F0000F91FF90EF90DF90CF90BF90AF909F90A1
:102700008F900895F601F082F18266CF8F929F92AA
:10271000AF92BF92CF92DF92EF92FF920F931F93EF
:10272000CF93DF93EC017B01D42E0E94C7028C0172
:10273000892B09F050C0CE010E947902863609F437
:1027400057C174F5873229F08B35B1F1823209F027
:1027500058C11D821C828A819B81892B81F408814A
:102760001981F801608171818FE190E00E94470A30
:10277000009719F421E0F80122839B838A83CE011C
:102780000E9403098C01892B31F5CE010E94E209D8
:10279000F7012481207825602483918380831BC0E6
:1027A000843709F40DC18B3709F458C08E3609F00F
:1027B00028C16FE371E00DC1F701848180788064E6
:1027C0008483E114F10419F08FEF80838183D110A9
:1027D00010C005E010E0C801DF91CF911F910F916B
:1027E000FF90EF90DF90CF90BF90AF909F908F9031
:1027F00008951C86CE010E94C702009709F085C08B
:102800006DE5CE010E9493028111E5CFDA946D85CA
:102810007E85C7010E94B8126115710519F404E0A4
:1028200010E0D9CF4D2DCE010E948613009709F0FC
:102830006CC0CE010E94C702009709F066C06DE52A
:10284000CE010E9493028111C6CF6CE2CE010E949C
:1028500093028111DCCF03E010E0BDCFC7010E94DD
:102860000F075C01DD2009F4B4CF1C86CE010E9465
:10287000C702009709F049C06DE7CE010E9493029C
:102880008111A9CFCC24C394DA941D821C828A8141
:102890009B81892B79F4E880F980F701608171814F
:1028A0008FE190E00E94470A009711F4F701C2827D
:1028B0009B838A83CE010E9479028732E1F08232C3
:1028C000D1F0CE010E947902F82E0E9406028823E0
:1028D00011F21C866F2DCE010E94CA08CE010E9403
:1028E0007902F82E0E9406028111F3CF8A819B8122
:1028F000892B31F494CFCE010E940309009729F46B
:10290000CE010E94C702009711F08C0164CF6AE3E8
:10291000CE010E949302882309F49DCFEA81FB81B6
:102920008C819D81E80FF91F14824D855E856A8137
:102930007B816C5F7F4FC5010E94090CCB017B013D
:10294000672BC9F5CE010E94E2094C016D857E8599
:10295000C5010E94B8127B016115710509F45FCFB2
:10296000FB01848180688483F4E08F0E911CF70161
:10297000978286824D2DB701CE010E948613009763
:1029800021F6CE010E94C702009709F0BECF6DE785
:10299000CE010E94930281111ECF6CE2CE010E94F3
:1029A0009302882309F457CFCE010E94C7020097F3
:1029B00009F46BCFAACF6D857E850E943208DACFED
:1029C000F701848180788660848381E0808364E479
:1029D00071E0CE01DF91CF911F910F91FF90EF90A9
:1029E000DF90CF90BF90AF909F908F900C94A402F7
:1029F000F7018481807886608483108269E471E0C5
:102A0000E8CFCE010E9479025E01FFE0AF0EB11C5B
:102A1000D12C9A2CCB2C803374F08A3374F49FE33E
:102A2000D91699F01C86D394F50181935F01CE01EC
:102A30000E947902F0CF8B3291F393ED980F923090
:102A400070F3982F9F7D953451F3CD0DD11D1F86C6
:102A5000B701892D9C2D0E94A5048111BCCEFBCE0F
:102A6000EF92FF920F931F93CF93DF936115710540
:102A700051F4F0E0E0E0CF01DF91CF911F910F9191
:102A8000FF90EF9008957A01EB01FC0124812F77EC
:102A9000C9F40E940F078C01009759F3A701BE01EA
:102AA0000E94090CFB01309731F7B701C8010E9461
:102AB000B812FB013097F9F284818F778483D78332
:102AC000C683D9CF0E941A07E6CFCF93DF93FC01CC
:102AD00040815181CA014A9641F430E020E0B901B9
:102AE00086E592E0DF91CF910895628173810E9423
:102AF0003015EC01009789F366E572E00E940C083E
:102B0000CE010E940F079C01EACFCF93DF93EC0127
:102B100049815A81CA014A9671F06B817C810E9479
:102B20003015009741F049815A816D817E81DF9196
:102B3000CF910C94301590E080E0DF91CF91089513
:102B4000CF92DF92EF92FF920F931F93CF93DF9379
:102B50008C017B01DC011196CD90DC900E948515E3
:102B6000EC01009791F0F701E080F180B6010E943E
:102B70000C088C8180788A608C83C701FF0CAA0BBB
:102B8000BB0B88839983AA83BB83D8011196ED91EF
:102B9000FC9180E0309719F0828191E08927DF91E4
:102BA000CF911F910F91FF90EF90DF90CF900895FC
:102BB000EF92FF920F931F93CF93DF93CDB7DEB7C2
:102BC00029970FB6F894DEBF0FBECDBF19861886C1
:102BD00086E5E82E82E0F82EFB82EA828DE491E021
:102BE0009D838C830FE411E01F830E83BE01685F19
:102BF0007F4FCE0101960E94A01519861886FB8290
:102C0000EA8281E591E09D838C831F830E83BE0160
:102C1000685F7F4FCE0101960E94A01529960FB6DE
:102C2000F894DEBF0FBECDBFDF91CF911F910F9102
:102C3000FF90EF900895EF92FF920F931F93CF9321
:102C4000DF938C01DC011196ED90FC900E948515BC
:102C5000EC01009759F0B7010E9432088C8180780E
:102C600084608C8384E391E099838883D8011196F2
:102C7000ED91FC9180E0309719F0828191E08927F5
:102C8000DF91CF911F910F91FF90EF9008952F92B8
:102C90003F924F925F926F927F928F929F92AF92EC
:102CA000BF92CF92DF92EF92FF920F931F93CF9339
:102CB000DF93CDB7DEB7E7970FB6F894DEBF0FBE50
:102CC000CDBF6115710509F43EC239014A016EA3F9
:102CD0007FA388A799A7F901309729F4CE0186969A
:102CE0000E943D08F6C184818F77883009F417C2AD
:102CF00008F04EC0843009F4DDC188F5833071F7E7
:102D00000190F081E02DB3800EA11FA101151105E6
:102D100009F4D1C07F0184E0E80EF11CC8A4D9A455
:102D2000B601C8010E940C08A7016B2D70E0EF28C6
:102D300071F0D6012D913C91C60103960E94640A60
:102D40009C01892B09F018C281E0F6018283D80129
:102D500014968C911497807814968C93ACC085301F
:102D600009F4D0C1863009F0B9CF0EA11FA1011519
:102D7000110509F4A0C0F08068A579A5C8010E94DA
:102D80000C08F8018481807886608483F08293C087
:102D90008C3009F475C0F0F48A3009F09FCF0EA191
:102DA0001FA10115110509F486C0C080D180E28001
:102DB000F38068A579A5C8010E940C08F8018481F8
:102DC00080788A608483D801CD92DD92ED92FC9266
:102DD000139771C0803209F477C0803409F07ECF38
:102DE000E8A4F9A40EA11FA10115110589F0B701EE
:102DF000C8010E940C08D80114968C911497807811
:102E0000806414968C9314978FEF8C9311968C9307
:102E10007C8A6B8A9E8A8D8A0115110509F44BC044
:102E2000B701C8010E945308CE0143960E949E0636
:102E300029833A834B835C836D837E8389819A8166
:102E40000097C9F12D813E819E878D87388B2F8712
:102E5000B701C8010E94B81278876F83FA86E986A5
:102E6000BE01635F7F4FCE0107960E94C81888237A
:102E700011F16D817E81CE0101960E948806DECF20
:102E80000EA11FA101151105B1F0C080D180E28013
:102E9000F38068A579A5C8010E940C08D801149692
:102EA0008C91149780788C6014968C93F801C08272
:102EB000D182E282F382E8A5F9A5309709F443C1F3
:102EC000828191E0892705C1C8A4D9A40EA11FA1C0
:102ED000B12CA12C0115110541F0B601C8010E94C9
:102EE0000C08C8010E940F075C01C3010E941A0769
:102EF0009BA38AA39DA28CA2A114B104E1F2892B09
:102F0000D1F2B601C5010E945308CE0182960E94FB
:102F10009E062D873E874F87588B698B7A8BF601EB
:102F20003396FFABEEAB8D859E85892B21F2CE01CA
:102F30000D960E94DE062B8B3C8B4D8B5E8B6F8B30
:102F4000788FCE0143960E94FE0E2F8338874987E3
:102F50005A876B877C8786E0FE013796DE011196E3
:102F600001900D928A95E1F709811A816B807C802E
:102F70008D819E819BAB8AABAF89B88DBFA7AEA771
:102F8000EB89FC89F9ABE8AB0115110509F5F12CCA
:102F9000E12C28A839A84EA45FA4FBA6EAA6DDA6CA
:102FA000CCA6A20191016AA57BA58CA59DA50E9436
:102FB0004716C114D10409F47ECFF6018281811134
:102FC0007ACF69897A89CE010D960E948806ABCFA7
:102FD000D50114968C918F77E1F5C5010E940F07FA
:102FE0004C010097A1F2B601FC0180810E94E00132
:102FF0006E8F7F8F88A399A3C801860D971D9DAB07
:103000008CABEE8CFF8CE114F10439F1D7011696EC
:10301000ED91FC91B0E0A0E0309739F0DF010D9028
:103020000020E9F71197AE1BBF0B6A167B0659F417
:10303000D8018CA99DA9A817B90709F4AACF9D9119
:1030400081919817B1F3B601CE014E960E94880681
:10305000D8CFC5010E941A07C3CFAAA9BBA911974F
:1030600081F4B601C4010E94B8127B01611571059B
:1030700009F48FCFFB0184818F77848317830683C4
:1030800088CF202F1A8F098F462D7C8E6B8E1D8E38
:10309000D6010D911C913A8D5C8D60E08EA99FA99F
:1030A0000E94B10A8C01892B09F04FC081E0F60122
:1030B00082836FCF6081718141E050E0CE01019643
:1030C0000E949D0CBE016F5F7F4FCE0186960E94CD
:1030D000200BE7960FB6F894DEBF0FBECDBFDF9191
:1030E000CF911F910F91FF90EF90DF90CF90BF9005
:1030F000AF909F908F907F906F905F904F903F9098
:103100002F9008950190F081E02D838190E0349616
:10311000FA83E9839C838B831E821D82D3CF0EA109
:103120001FA10115110509F4C6CEC080D180E2802F
:10313000F38068A579A5C8010E940C08F801848174
:10314000807888603FCE80E0C4CFB601C4010E9481
:10315000B8127B01672B09F41CCFD70114968C9110
:103160001497806814968C9314970C5F1F4F1796D2
:103170001C930E9316970DCFD80114969C9114971B
:103180009078936014969C9314972D933C9393CED0
:10319000CF93DF93EC01FB01208131814281538188
:1031A000688179818A819B810E944716EA81FB812F
:1031B00080E0309719F0828191E08927DF91CF91EB
:1031C0000895CF92DF92EF92FF920F931F93CF93C8
:1031D000DF93FC01C480D580DD24C091AC01D09187
:1031E000AD01CC0DDD1D21962091AE013091AF01D6
:1031F0002C173D074CF17C0110E000E00C151D057B
:10320000DCF4F701848195810817190798F480810F
:103210009181009779F0800F911FFC01608180916E
:10322000AC019091AD01800F911F0E94E3270F5FC9
:103230001F4FE4CF60E0F3CF63E2CE010E94E327AB
:10324000D093AD01C093AC01DF91CF911F910F914D
:10325000FF90EF90DF90CF9008953F924F925F9252
:103260006F927F928F929F92AF92BF92CF92DF9296
:10327000EF92FF920F931F93CF93DF93CDB7DEB7FB
:10328000CC59D1090FB6F894DEBF0FBECDBF4DB6F5
:103290005EB664E371E0CE018F569F4F0E949C1290
:1032A0000E94C80097FD10C08A30910569F089839B
:1032B0001A8241E050E0BE016F5F7F4FCE018F5612
:1032C0009F4F0E94690FECCFCF56DF4FC880D98047
:1032D000C159D040C114D10459F0CB56DF4F0881F9
:1032E0001981C559D04076010115110509F0D3C0E7
:1032F00080E091E062969FAF8EAF629763961FAEBB
:10330000639765961FAE1EAE659780E590E08C0FC3
:103310009D1F0596A7969FAF8EAFA797A8961FAE45
:10332000A89784E0A9968FAFA9978FEFAA968FAF41
:10333000AA97AF961FAEAF97CF56DF4FE880F980C0
:10334000C159D040CB56DF4F08811981C559D040B3
:103350000E0D1F1DCE01805B9F4F0E94A407AF96EC
:103360001FAEAF9720E530E02C0F3D1F3A83298335
:103370001C821B821E821D821F82F986E8861B87A3
:103380000A871D863F872E87B901665E7F4F4AE018
:103390008E010F5F1F4FC8010E9486137C01892B8D
:1033A00059F48C85882341F0AF968FADAF9783FF9A
:1033B00003C0A3E0EA2EF12C8B819C81009731F0B1
:1033C000E981FA81608171810E949A0784E591E028
:1033D000EF2809F05CC080E590E08C0F9D1F4A96B5
:1033E0000E941A07C956DF4F99838883C759D04076
:1033F00080E590E08C0F9D1FC756DF4F998388832F
:10340000C959D04066E771E0CE0189569F4F0E94AE
:103410008C0C882309F444C1EE24E394F12CE1964A
:10342000FFAEEEAEE19746E751E0BE0169567F4F31
:10343000C8010E949404BE0161597F4FC8010E94D7
:10344000650E882309F42CC160EA71E0CE0189562B
:103450009F4F0E948C0C882309F422C187E090E0E2
:10346000E1969FAF8EAFE19740EA51E0BE01695609
:103470007F4FC8010E949404BE0161597F4FC8016B
:103480000E94650E882309F448C085E691E00E94F9
:10349000AC0B06C1750157012FEFA21AB20AF70152
:1034A0008081082E000C990B0E949B26892B91F796
:1034B000015011090C0D1D1DF8018081082E000C12
:1034C000990B0E949B26892B31F00E151F0518F0D1
:1034D00001501109F1CFA8014F5F5F4F4E195F09ED
:1034E000CB56DF4F59834883C559D040CE14DF04F3
:1034F00020F4B701C6010E94082BCF56DF4FE881A8
:10350000F981C159D040CB56DF4F88819981C55987
:10351000D040E80FF91F1082EBCE86E090E0E196F4
:103520009FAF8EAFE19740EA51E0BE0169567F4FF1
:10353000C8010E949404BE0161597F4FC8010E94D6
:10354000650E882309F4D4C0E1961FAE1EAEE19744
:1035500026E5E22E22E0F22EFB82EA823AE6C32E34
:1035600031E0D32EDD82CC824FE4842E41E0942ED4
:103570009F828E82BE0161597F4FC8010E94A015B3
:10358000E1961FAE1EAEE197FB82EA82DD82CC821D
:103590005CE6A52E51E0B52EBF82AE82BE01615918
:1035A0007F4FC8010E94A015E1961FAE1EAEE197A5
:1035B000FB82EA82DD82CC826EE6662E61E0762EA8
:1035C0007F826E82BE0161597F4FC8010E94A015A3
:1035D000E1961FAE1EAEE197FB82EA827DE4C72E24
:1035E00071E0D72EDD82CC829F828E82BE0161592E
:1035F0007F4FC8010E94A015E1961FAE1EAEE19755
:10360000FB82EA82DD82CC82BF82AE82BE0161593A
:103610007F4FC8010E94A015E1961FAE1EAEE19734
:10362000FB82EA82DD82CC827F826E82BE0161599A
:103630007F4FC8010E94A015E1961FAE1EAEE19714
:10364000FB82EA82E2E4CE2EE1E0DE2EDD82CC8255
:103650009F828E82BE0161597F4FC8010E94A015D2
:10366000E1961FAE1EAEE197FB82EA82DD82CC823C
:10367000BF82AE82BE0161597F4FC8010E94A01572
:10368000E1961FAE1EAEE197FB82EA82DD82CC821C
:103690007F826E82BE0161597F4FC8010E94A015D2
:1036A000CE01805B9F4F0E94C307CE018F569F4F74
:1036B0000E94AD120FB6F8945EBE0FBE4DBEC4564A
:1036C000DF4F0FB6F894DEBF0FBECDBFDF91CF91B5
:1036D0001F910F91FF90EF90DF90CF90BF90AF9030
:1036E0009F908F907F906F905F904F903F90089544
:1036F00082E090E0E1969FAF8EAFE19740EA51E023
:10370000BE0169567F4FC8010E949404BE016159F1
:103710007F4FC8010E94650E882309F429C16DE915
:1037200071E0CE0189569F4F0E948C0C882309F4CA
:10373000B7CF4DE951E0BE0169567F4FC8010E94E5
:10374000940466E771E0C8010E944823882309F4C5
:10375000A7CF4DE951E0BE0169567F4FCE01815997
:103760009F4F0E94940460E771E0CE0181599F4F02
:103770000E944823882309F493CF4DE951E0BE010C
:1037800069567F4FCE0181599F4F0E949404E49661
:103790008CAD9DADAEADBFADE497EC968CAF9DAF5B
:1037A000AEAFBFAFEC97E6962EAD3FADE6978B83FD
:1037B0009C83AD83BE8338872F8380E791E09A870F
:1037C0008987B801CE018B579F4F0E947E234DE918
:1037D00051E0BE0169567F4FCE0181599F4F0E9433
:1037E0009404E4968CAD9DADAEADBFADE497EC9680
:1037F0008CAF9DAFAEAFBFAFEC97E6962EAD3FADB1
:10380000E6978B839C83AD83BE8338872F8386E7BF
:1038100091E09A878987B801CE0185579F4F0E9412
:103820007E23CB57DF4F48815981C558D040C757B9
:10383000DF4F68817981C958D04026E532E080E7C2
:1038400092E00E94DB22892B09F487C0BE016B57EE
:103850007F4FCE0181599F4F0E94642396E5C92E68
:1038600092E0D92EDA82C982BE0161597F4FCE0122
:1038700003960E946423CE0181599F4F0E94AD128E
:10388000BE0165577F4FC8010E94F822F82ECE0175
:1038900003960E94AD12FF2009F45FC0C556DF4FAA
:1038A00019821882CB59D040BE016B577F4FC80197
:1038B0000E946423FE01E159FF4FC192D1927F0122
:1038C000B801CF010E946423C8010E94AD12BE015D
:1038D00065577F4FCE0181589F4F0E946423E19628
:1038E0008EAD9FADE1979E0129583F4FF90181931D
:1038F00091936F01B701CF010E946423E9968EADC9
:103900009FADE9979B838A83B601CE0104960E94FE
:103910006423BE0161587F4FCE010A960E94642342
:10392000C6010E94AD12CE0181589F4F0E94AD1278
:10393000BE0165567F4FC8010E949C24CE010A96A5
:103940000E94AD12CE0104960E94AD12C7010E94E2
:10395000AD1282E791E00E94AC0BCE0185579F4FDC
:103960000E94AD12CE018B579F4F0E94AD1298CE90
:10397000E196FFAEEEAEE19740EA51E0BE01695636
:103980007F4FC8010E949404BE0161597F4FC80156
:103990000E94650E882309F439C1809156029091E6
:1039A00057029A8389831B821D821C82CE01069650
:1039B0009F8B8E8B188E84E0898F8FEF8A8F1F8E5E
:1039C000C8010E94A4071F8E6E01FBE1CF0ED11C1F
:1039D000B801C6010E943208E996DFAECEAEE99783
:1039E000EB961FAF0EAFEB9780E792E0E1969FAFAB
:1039F0008EAFE19786E592E0E3969FAF8EAFE397B7
:103A0000BE0161597F4FCE0189589F4F0E94C8184F
:103A1000A8016AE671E0C6010E94670C009709F4EC
:103A2000A4C00E941A07CB57DF4F99838883C558DB
:103A3000D040C957DF4F19830883C758D040CE0103
:103A40008B579F4F0E949E06C158DF4F2883CF5748
:103A5000D040C058DF4F3883C058D040CF57DF4FD9
:103A60004883C158D040CE57DF4F5883C258D0400A
:103A7000CD57DF4F6883C358D040CC57DF4F788392
:103A8000C458D040C158DF4F88819981CF57D0406A
:103A9000892B09F49FC0CE0181589F4F0E94DE06FA
:103AA000E8962FAFE897E9963FAFE997EA964FAFD0
:103AB000EA97EB965FAFEB97EC966FAFEC97ED96CE
:103AC0007FAFED97E9968EAD9FADE997009729F00E
:103AD0000E940C06892B09F06EC0CE0189589F4FB9
:103AE0000E94FE0EE0962FAFE097E1963FAFE19780
:103AF000E2964FAFE297E3965FAFE397E4966FAF3E
:103B0000E497E5967FAFE597E196EEACFFACE197E1
:103B1000A80165E771E0C6010E94670C009709F4EF
:103B20004AC00E941A075C01009709F444C0A8012A
:103B3000B7010E94090C382E7B01672BE1F1F501DA
:103B4000708066246A94912C812CFFEF7F1681F09F
:103B5000672DCE0146960E94C501E816F90661F070
:103B6000672C4C01FC017580F0CF90E080E05BCFCA
:103B700066246A94912C812CF7018581811491042B
:103B800031F1F40185838F3F11F4F5016182F70172
:103B9000848187FF08C049815A8166817781CE017F
:103BA00004960E94E107B801C7010E9432088A8D7D
:103BB000F70185833A8ECD57DF4F68817981C358ED
:103BC000D040CE0181589F4F0E9488065BCFF501FF
:103BD0008083D9CF89EB91E0E1969FAF8EAFE197DB
:103BE000E3961FAE1EAEE397E5961FAF0EAFE597C7
:103BF000BE0161597F4FC6010E94B60C86E391E079
:103C00000E949F0BC8010E94C3074ACD88E090E044
:103C1000E1969FAF8EAFE19740EA51E0BE01695651
:103C20007F4FC8010E949404BE0161597F4FC801B3
:103C30000E94650E882309F4C4C16DE971E0CE01CC
:103C400089569F4F0E948C0C882309F429CD4DE999
:103C500051E0BE0169567F4FC8010E94940466E797
:103C600071E0C8010E944823882309F419CD4DE969
:103C700051E0BE0169567F4FCE0181599F4F0E948E
:103C8000940460E771E0CE0181599F4F0E94482360
:103C9000882309F405CD4DE951E0BE0169567F4FF7
:103CA000CE0189589F4F0E94940462E571E0CE01D5
:103CB00089589F4F0E944823882309F4F1CC4DE98D
:103CC00051E0BE0169567F4FCE0181599F4F0E943E
:103CD0009404E4968CAD9DADAEADBFADE497EC968B
:103CE0008CAF9DAFAEAFBFAFEC97E6962EAD3FADBC
:103CF000E6978B839C83AD83BE8338872F8380E7D1
:103D000091E09A878987B801CE0181589F4F0E9420
:103D10007E234DE951E0BE0169567F4FCE018159A6
:103D20009F4F0E949404E4968CAD9DADAEADBFADA7
:103D3000E497EC968CAF9DAFAEAFBFAFEC97E69635
:103D40002EAD3FADE6978B839C83AD83BE833887D2
:103D50002F8386E791E09A878987B801CE018B5738
:103D60009F4F0E947E234DE951E0BE0169567F4F6F
:103D7000CE0181599F4F0E949404E4968CAD9DAD75
:103D8000AEADBFADE497EC968CAF9DAFAEAFBFAF1D
:103D9000EC97E6962EAD3FADE6978B839C83AD8383
:103DA000BE8338872F8382E591E09A878987C8018F
:103DB0000E942B23009709F401C10E940C06C556EE
:103DC000DF4F99838883CB59D040C158DF4F48815A
:103DD0005981CF57D040CD57DF4F68817981C35883
:103DE000D04026E532E080E792E00E94DB22892B7A
:103DF00009F4DBC0BE0161587F4FCE0181599F4F4E
:103E00000E94642386E5C82E82E0D82EDA82C98219
:103E1000BE0161597F4FCE0103960E946423CE01FB
:103E200081599F4F0E94AD12BE016B577F4FC80151
:103E30000E94F822F82ECE0103960E94AD12FF20B8
:103E400009F4B3C0BE0161587F4FC8010E946423CA
:103E50009E0121593F4FF901C192D1927F01B801D2
:103E6000CF010E946423C8010E94AD12BE016B57AE
:103E70007F4FCE0185579F4F0E946423E1968EAD00
:103E80009FADE1979E0129583F4FF901819391938E
:103E90006F01B701CF010E946423E9968EAD9FADFB
:103EA000E9979B838A83B601CE0104960E9464231E
:103EB000BE0165577F4FCE010A960E946423C6015A
:103EC0000E94AD12CE0185579F4F0E94AD12BE01D8
:103ED00065567F4FC8010E949C24CE010A960E941D
:103EE000AD12CE0104960E94AD12C7010E94AD1220
:103EF000C556DF4FE880F980CB59D04068E771E0C4
:103F0000CE0181599F4F0E949C12C757DF4F4881B5
:103F10005981C958D040CB57DF4F68817981C55846
:103F2000D040CE0181599F4F0E94690F811105C079
:103F3000CE0181599F4F0E94691242E050E06BE729
:103F400071E0CE0181599F4F0E94690F811105C018
:103F5000CE0181599F4F0E9469124AE0B801C70102
:103F60000E947626F80101900020E9F73197AF0111
:103F7000401B510BB801CE0181599F4F0E94690F20
:103F8000811105C0CE0181599F4F0E946912CE0157
:103F900081599F4F0E94E118CE0181599F4F0E9485
:103FA000AD1282E791E00E94AC0BCE018B579F4F80
:103FB0000E94AD12CE0181589F4FD7CC90E080E097
:103FC000FECE89E090E0E1969FAF8EAFE19740EAA8
:103FD00051E0BE0169567F4FC8010E949404BE01A2
:103FE00061597F4FC8010E94650E882309F455C0AE
:103FF0006DE971E0CE0189569F4F0E948C0C882399
:1040000009F44ECB4DE951E0BE0169567F4FC8011E
:104010000E94940466E771E0C8010E944823882347
:1040200009F43ECB4DE951E0BE0169567F4FCE0108
:1040300081599F4F0E949404E4968CAD9DADAEAD26
:10404000BFADE497EC968CAF9DAFAEAFBFAFEC9732
:10405000E6962EAD3FADE6978B839C83AD83BE8302
:1040600038872F8386E791E09A878987B801CE0148
:1040700089589F4F0E947E23BE0169587F4FC80117
:104080000E946423C8010E94AD1282E791E00E9461
:10409000AC0BCE0189589F4F68CC83E090E0E1964D
:1040A0009FAF8EAFE19740EA51E0BE0169567F4F66
:1040B000C8010E949404BE0161597F4FC8010E944B
:1040C000650E882309F4A5C06DE971E0CE0189561B
:1040D0009F4F0E948C0C882309F4E2CA4DE951E0FD
:1040E000BE0169567F4FC8010E9494046EE771E0DB
:1040F000C8010E944823882309F4D2CA4DE951E03F
:10410000BE0169567F4FCE0181599F4F0E94940492
:1041100060E871E0CE0181599F4F0E9448238823B7
:1041200009F4BECA4DE951E0BE0169567F4FCE0188
:1041300081599F4F0E949404E4968CAD9DADAEAD25
:10414000BFADE497EC968CAF9DAFAEAFBFAFEC9731
:10415000E6962EAD3FADE6978B839C83AD83BE8301
:1041600038872F838EE791E09A878987B801CE013F
:1041700081589F4F0E947E234DE951E0BE01695650
:104180007F4FCE0181599F4F0E949404E4968CADDD
:104190009DADAEADBFADE497EC968CAF9DAFAEAF2D
:1041A000BFAFEC97E6962EAD3FADE6978B839C8331
:1041B000AD83BE8338872F8380E891E09A87898713
:1041C000B801CE0189589F4F0E947E23BE016958D5
:1041D0007F4FC8010E946423BE0161587F4FCE010A
:1041E00081599F4F0E946423CE0181599F4F0E94A5
:1041F000AD12C8010E94AD1282E791E00E94AC0BA3
:10420000CE0189589F4F0E94AD12CE0181589F4F19
:10421000ACCB85E090E0E1969FAF8EAFE19740EAAE
:1042200051E0BE0169567F4FC8010E949404BE014F
:1042300061597F4FC8010E94650E8823E9F16DE93D
:1042400071E0CE0189569F4F0E948C0C882309F49F
:1042500027CA4DE951E0BE0169567F4FC8010E944F
:10426000940460E871E0C8010E944823882309F49F
:1042700017CA4DE951E0BE0169567F4FCE01815901
:104280009F4F0E949404E4968CAD9DADAEADBFAD42
:10429000E497EC968CAF9DAFAEAFBFAFEC97E696D0
:1042A0002EAD3FADE6978B839C83AD83BE8338876D
:1042B0002F8380E891E0D8CE84E090E0E1969FAF34
:1042C0008EAFE19740EA51E0BE0169567F4FC801C9
:1042D0000E949404BE0161597F4FC8010E94650E7F
:1042E0008111ADCF8AE090E0E1969FAF8EAFE1976C
:1042F00040EA51E0BE0169567F4FC8010E94940414
:10430000BE0161597F4FC8010E94650E882309F4E0
:1043100049C06DB67EB6E090AC01F090AD0162E8A8
:1043200071E0E114F10441F1C70101962DB73EB7E8
:10433000281B390B0FB6F8943EBF0FBE2DBF8DB7AB
:104340009EB701965C014C01D12CC12CEC14FD04EC
:1043500054F0C6010E94DB27F40181934F01FFEF67
:10436000CF1ADF0AF3CFF501EE0DFF1D1082109278
:10437000AD011092AC01B501C8010E949C120FB6AC
:10438000F8947EBE0FBE6DBE4D815E8169817A81DB
:1043900089EB91E00E94780085E391E00E949F0BF9
:1043A000C801E3CA88E891E072C8CB010C942629C1
:1043B0001F920F920FB60F9211242F933F938F935A
:1043C0009F93AF93BF938091B5019091B601A09157
:1043D000B701B091B8013091B40123E0230F2D371C
:1043E00058F50196A11DB11D2093B4018093B5012C
:1043F0009093B601A093B701B093B8018091B0013A
:104400009091B101A091B201B091B3010196A11DAB
:10441000B11D8093B0019093B101A093B201B0930C
:10442000B301BF91AF919F918F913F912F910F90C9
:104430000FBE0F901F90189526E8230F0296A11D1E
:10444000B11DD2CF1F920F920FB60F9211242F934E
:104450003F934F935F936F937F938F939F93AF930C
:10446000BF93EF93FF9389EB91E00E943601FF9198
:10447000EF91BF91AF919F918F917F916F915F91DC
:104480004F913F912F910F900FBE0F901F90189555
:104490001F920F920FB60F9211242F938F939F9319
:1044A000EF93FF93E091C901F091CA018081E091FF
:1044B000CF01F091D00182FD1BC090818091D2018B
:1044C0008F5F8F732091D301821741F0E091D20169
:1044D000F0E0E754FE4F958F8093D201FF91EF916A
:1044E0009F918F912F910F900FBE0F901F90189555
:1044F0008081F4CF4F925F926F927F92BF92CF9262
:10450000DF92EF92FF920F931F93CF93DF9300D030
:1045100000D0CDB7DEB77A01452BB1F460E070E092
:104520008FEF9B2D0F900F900F900F90DF91CF91F9
:104530001F910F91FF90EF90DF90CF90BF907F90F1
:104540006F905F904F90089589013B01B901FC0184
:1045500080810E94E00169837A838B839C8363015D
:10456000E981FA813097D1F20680F781E02DB0E041
:10457000A0E0309739F0DF010D900020E9F71197A6
:10458000AE1BBF0BAC15BD0559F4D70196012E0D1E
:104590003F1DA217B30751F09D9181919817C9F360
:1045A000B801CE0101960E948806DACF69817A812E
:1045B0008B81BC80B6CFCF92DF92EF92FF92CF93E8
:1045C000DF936A017B01E9010E941A07009769F0F5
:1045D0009E01B701A6010E947A22CB01DF91CF9103
:1045E000FF90EF90DF90CF90089590E080E0F6CFBD
:1045F000EF92FF920F931F93CF93DF93FC01C08143
:10460000D181DB0114960D911C911597ED90FC90D2
:10461000CE014A9642815381668177810097C1F02D
:104620009E010E94DB22A701B80130E020E0009744
:1046300021F09E010E94DB229C0181E0232B09F4E2
:1046400080E0DF91CF911F910F91FF90EF9008953F
:1046500090E080E0E8CF0F931F93CF93DF93FC01AE
:1046600004811581C085D18501960E947E0C00973A
:1046700041F0A801BE01DF91CF911F910F910C94E1
:10468000670C90E080E0DF91CF911F910F9108952A
:104690000F931F93CF93DF93EB01FC0103811481F0
:1046A0000E947E0C30E020E0009729F0A801BE01B6
:1046B0000E94670C9C0181E0232B09F480E0DF91CC
:1046C000CF911F910F910895FB01DC0111961C926F
:1046D0001E9213961C921E92129715961C921E9271
:1046E00014978617970749F06081718161157105EC
:1046F00021F0448155810C947B120895CF92DF9272
:10470000EF92FF920F931F93CF93DF93CDB7DEB756
:10471000CE5BD1090FB6F894DEBF0FBECDBF7C01D2
:10472000CB01FB01C480D5800E942B238C0164E364
:1047300071E0C7010E949C120115110549F0F801B2
:1047400084818F77843009F461C0853009F496C084
:10475000CB56DF4FF982E882C559D040C954DF4FAC
:1047600019821882C75BD040C7010E94691284E297
:10477000FE01EB56FF4FDE01AF58BF4F01900D9287
:104780008A95E1F784E2FE01EF58FF4FDE01A35B5B
:10479000BF4F01900D928A95E1F784E2FE01E35B41
:1047A000FF4FDE01999601900D928A95E1F784E220
:1047B000FE01B996DE01119601900D928A95E1F7FE
:1047C0001EA21DA2CE0189960E94950FD8A6CFA247
:1047D000CE01835B9F4F0E94950F0115110509F4CF
:1047E00052C0BE016F5F7F4FC8010E94B610CE015C
:1047F00001960E94950FCE018F589F4F0E94950FF2
:10480000CE018B569F4F0E94950F27C0608171810A
:1048100041E050E0CE0101960E949D0C86E0FE0131
:104820003196DE01A754BF4F01900D928A95E1F7B2
:10483000C754DF4F68817981C95BD040611571052C
:1048400009F486CFFB0101900020E9F73197AF0111
:10485000461B570BC7010E947B12C701C254DF4F92
:104860000FB6F894DEBF0FBECDBFDF91CF911F9181
:104870000F91FF90EF90DF90CF900895608171814C
:104880006C5F7F4FDBCF6FE371E0CE0101960E943A
:104890006710ADCFAF92BF92CF92DF92EF92FF92AF
:1048A0000F931F93CF93DF934115510571F4D0E01F
:1048B000C0E0CE01DF91CF911F910F91FF90EF905B
:1048C000DF90CF90BF90AF90089589016A017B017E
:1048D000FC0124812F77E9F40E940F075C01009707
:1048E00031F39801B701A6010E947A22EB012097CB
:1048F00001F7F80120813181B701A601C8010396B3
:104900000E94640A7C01892B39F481E0F8018283DA
:10491000D0CF0E941A07E2CFB801C5010E94B81299
:10492000EB01209731F28C8180688C83F4E0EF0EEC
:10493000F11CFF82EE82BDCFCF92DF92EF92FF9209
:104940000F931F93CF93DF93EC017B01C980DA8033
:10495000C6014A9639F14B815C816F817885960159
:104960000E944A240097F1F029813A8149855A85AD
:104970006D857E850E944A248C01009799F0F7018D
:10498000E080F180B6010E940C08F80184818078F3
:104990008A608483C701FF0CAA0BBB0B80839183C1
:1049A000A283B383E981FA8180E0309719F0828194
:1049B00091E08927DF91CF911F910F91FF90EF90A8
:1049C000DF90CF900895E9EBF1E01382128288EE38
:1049D00093E0A0E0B0E084839583A683B78386E16B
:1049E00091E09183808385EC90E09587848784ECC7
:1049F00090E09787868780EC90E0918B808B81ECAC
:104A000090E0938B828B82EC90E0958B848B86EC8C
:104A100090E0978B868B118E128E138E148EE6E5A6
:104A2000F2E080E091E0918380831282148213820D
:104A30008BE592E0968B858B178A84E0808F8FEFD1
:104A4000818F168E0895CF93DF93CDB7DEB7299768
:104A50000FB6F894DEBF0FBECDBF789484B58260E8
:104A600084BD84B5816084BD85B5826085BD85B512
:104A7000816085BD80916E00816080936E00109290
:104A8000810080918100826080938100809181000B
:104A9000816080938100809180008160809380009C
:104AA0008091B10084608093B1008091B0008160FA
:104AB0008093B00080917A00846080937A00809126
:104AC0007A00826080937A0080917A00816080937E
:104AD0007A0080917A00806880937A001092C100F9
:104AE00083E3C82E83E0D82ED092AF01C092AE01EE
:104AF00006E512E01A8309839AE6E92E91E0F92E81
:104B0000FC82EB82CE0101960E9465151A8309830F
:104B10008FE991E09C838B83CE0101960E946515FD
:104B20001A8309838DE491E09C838B83CE010196E7
:104B30000E9465151A83098381E591E09C838B832C
:104B4000CE0101960E9465151A83098382E491E0E3
:104B50009C838B83CE0101960E9465151A8309837D
:104B600082EA91E09C838B83CE0101960E946515B9
:104B7000D092AF01C092AE01E091C901F091CA019B
:104B800082E08083E091C501F091C6011082E0913E
:104B9000C701F091C80110821092D101E091CD01BE
:104BA000F091CE0186E08083E091CB01F091CC01C1
:104BB000808180618083E091CB01F091CC01808184
:104BC00088608083E091CB01F091CC018081806886
:104BD0008083E091CB01F091CC0180818F7D808337
:104BE000198618861B830A83FD82EC822FE4A22E8D
:104BF00021E0B22EBF82AE82BE01685F7F4FCE0140
:104C000001960E94A0151B830A8335E7C32E31E06D
:104C1000D32EDD82CC82BF82AE82CE0101960E946D
:104C20001B16198618861B830A83FD82EC824CE6CC
:104C3000A42E41E0B42EBF82AE82BE01685F7F4FDA
:104C4000CE0101960E94A0151B830A83DD82CC82CF
:104C5000BF82AE82CE0101960E941B16198618866D
:104C60001B830A83FD82EC825EE6E52E51E0F52E81
:104C7000FF82EE82BE01685F7F4FCE0101960E94E7
:104C8000A0151B830A83DD82CC82FF82EE82CE01D7
:104C900001960E941B160E94D8150E94D81565EA3D
:104CA00071E0CE0101960E949C12CE0101960E94F5
:104CB000E118CE0101960E94AD1200E010E089EBF0
:104CC00091E00E9416011816190614F40E942D197D
:104CD00001151105A1F30E942201882381F30E948E
:104CE0000000EDCF86E592E00C94C307BB274A3065
:104CF00031F4992322F4BDE2909581959F4F0C9455
:104D00008226BB27FB015527AA27880F991FAA1FB8
:104D1000A41710F0A41B83955051B9F7A05DAA33D6
:104D200008F0A95DA193009779F7B111B1931192A1
:104D3000CB010C94A42691110C948727803219F092
:104D400089508550C8F70895DC01FC01672F7191E7
:104D50007723E1F7329704C07C916D937083629161
:104D6000AE17BF07C8F308950E94F62608F481E045
:104D70000895E89409C097FB3EF49095809570954E
:104D800061957F4F8F4F9F4F9923A9F0F92F96E997
:104D9000BB279395F695879577956795B795F1110C
:104DA000F8CFFAF4BB0F11F460FF1BC06F5F7F4FA9
:104DB0008F4F9F4F16C0882311F096E911C07723BB
:104DC00021F09EE8872F762F05C0662371F096E8C4
:104DD000862F70E060E02AF09A95660F771F881F93
:104DE000DAF7880F9695879597F90895990F000837
:104DF000550FAA0BE0E8FEEF16161706E807F907AD
:104E0000C0F012161306E407F50798F0621B730B47
:104E1000840B950B39F40A2661F0232B242B252BC8
:104E200021F408950A2609F4A140A6958FEF811D6B
:104E3000811D08950E942D270C94A1270E9493277D
:104E400038F00E949A2720F0952311F00C948A27BD
:104E50000C94902711240C94D5270E94B22770F34C
:104E6000959FC1F3950F50E0551F629FF001729F0F
:104E7000BB27F00DB11D639FAA27F00DB11DAA1F1E
:104E8000649F6627B00DA11D661F829F2227B00D6B
:104E9000A11D621F739FB00DA11D621F839FA00DF6
:104EA000611D221F749F3327A00D611D231F849F46
:104EB000600D211D822F762F6A2F11249F5750409D
:104EC0009AF0F1F088234AF0EE0FFF1FBB1F661F18
:104ED000771F881F91505040A9F79E3F510580F0E1
:104EE0000C948A270C94D5275F3FE4F3983ED4F3C3
:104EF000869577956795B795F795E7959F5FC1F785
:104F0000FE2B880F911D9695879597F908959927FF
:104F10008827089597F99F6780E870E060E008951A
:104F20009FEF80EC089500240A94161617061806C1
:104F30000906089500240A9412161306140605069D
:104F40000895092E0394000C11F4882352F0BB0F2E
:104F500040F4BF2B11F460FF04C06F5F7F4F8F4F91
:104F60009F4F089557FD9058440F551F59F05F3FCC
:104F700071F04795880F97FB991F61F09F3F79F07B
:104F800087950895121613061406551FF2CF4695FD
:104F9000F1DF08C0161617061806991FF1CF86957F
:104FA0007105610508940895E894BB276627772763
:104FB000CB0197F90895F999FECF92BD81BDF89A7A
:104FC000992780B50895262FF999FECF1FBA92BD73
:104FD00081BD20BD0FB6F894FA9AF99A0FBE0196DA
:104FE00008950E943328A59F900DB49F900DA49F13
:104FF000800D911D112408952F923F924F925F9240
:105000006F927F928F929F92AF92BF92CF92DF92D8
:10501000EF92FF920F931F93CF93DF93CDB7DEB73D
:10502000CA1BDB0B0FB6F894DEBF0FBECDBF0994D1
:105030002A88398848885F846E847D848C849B8428
:10504000AA84B984C884DF80EE80FD800C811B8136
:10505000AA81B981CE0FD11D0FB6F894DEBF0FBE65
:10506000CDBFED010895A29FB001B39FC001A39FE2
:10507000700D811D1124911DB29F700D811D112491
:10508000911D08955058BB27AA270E945A280C94B6
:10509000A1270E94932738F00E949A2720F039F424
:1050A0009F3F19F426F40C9490270EF4E095E7FB4B
:1050B0000C948A27E92F0E94B22758F3BA17620787
:1050C00073078407950720F079F4A6F50C94D4278C
:1050D0000EF4E0950B2EBA2FA02D0B01B901900113
:1050E0000C01CA01A0011124FF27591B99F0593F57
:1050F00050F4503E68F11A16F040A22F232F342F9F
:105100004427585FF3CF469537952795A795F040EC
:105110005395C9F77EF41F16BA0B620B730B840B01
:10512000BAF09150A1F0FF0FBB1F661F771F881FB9
:10513000C2F70EC0BA0F621F731F841F48F4879511
:1051400077956795B795F7959E3F08F0B0CF939503
:10515000880F08F09927EE0F9795879508950E947C
:10516000B6286894B1110C94D52708950E94BA27E7
:1051700088F09F5798F0B92F9927B751B0F0E1F018
:10518000660F771F881F991F1AF0BA95C9F714C0C8
:10519000B13091F00E94D427B1E008950C94D42747
:1051A000672F782F8827B85F39F0B93FCCF3869501
:1051B00077956795B395D9F73EF49095809570955E
:1051C00061957F4F8F4F9F4F08950E94F62608F4F8
:1051D0008FEF0895AA1BBB1B51E107C0AA1FBB1F7D
:1051E000A617B70710F0A61BB70B881F991F5A9573
:1051F000A9F780959095BC01CD010895A1E21A2EE2
:10520000AA1BBB1BFD010DC0AA1FBB1FEE1FFF1F6A
:10521000A217B307E407F50720F0A21BB30BE40BBA
:10522000F50B661F771F881F991F1A9469F7609501
:105230007095809590959B01AC01BD01CF010895BB
:10524000EE0FFF1F0590F491E02D09940F931F932B
:10525000CF93DF938230910510F482E090E0E091EB
:105260007702F091780230E020E0B0E0A0E03097E3
:1052700099F42115310509F44AC0281B390B243053
:105280003105D8F58A819B816115710589F1FB0192
:1052900093838283FE0111C0408151810281138179
:1052A00048175907E0F04817590799F4109761F02B
:1052B00012960C93129713961C933296CF01DF919E
:1052C000CF911F910F910895009377021093780268
:1052D000F4CF2115310551F04217530738F0A901D9
:1052E000DB019A01BD01DF01F801C1CFEF01F9CF68
:1052F0009093780280937702CDCFFE01E20FF31FE7
:10530000819391932250310939832883D7CF2091FB
:10531000750230917602232B41F4209104013091E3
:10532000050130937602209375022091020130919D
:1053300003012115310541F42DB73EB74091060117
:1053400050910701241B350BE0917502F091760214
:10535000E217F307A0F42E1B3F0B2817390778F04C
:10536000AC014E5F5F4F2417350748F04E0F5F1FAB
:105370005093760240937502819391939FCFF0E012
:10538000E0E09CCFCF93DF930097E9F0FC013297E8
:1053900013821282A0917702B0917802ED0130E081
:1053A00020E01097A1F420813181820F931F20917A
:1053B0007502309176022817390709F061C0F09321
:1053C0007602E0937502DF91CF910895EA01CE173E
:1053D000DF07E8F54A815B819E0141155105B1F770
:1053E000E901FB83EA8349915991C40FD51FEC175A
:1053F000FD0761F4808191810296840F951FE90178
:1054000099838883828193819B838A83F0E0E0E0A3
:1054100012968D919C9113970097B9F52D913C911F
:105420001197CD010296820F931F20917502309142
:1054300076022817390739F6309751F5109278021D
:1054400010927702B0937602A0937502BCCFD383FB
:10545000C28340815181840F951FC817D90761F419
:105460004E5F5F4F88819981480F591F5183408358
:105470008A819B81938382832115310509F0B0CF06
:10548000F0937802E09377029ECFFD01DC01C0CF5C
:1054900013821282D7CFB0E0A0E0E1E5FAE20C94EB
:1054A000FE278C01009751F4CB010E9426298C0124
:1054B000C801CDB7DEB7E0E10C941A28FC01E60F75
:1054C000F71F9C0122503109E217F30708F49DC031
:1054D000D901CD91DC911197C617D70798F0C53047
:1054E000D10530F3CE0104978617970708F3C61B42
:1054F000D70B2297C193D1936D937C93CF010E94D8
:10550000C229D6CF5B01AC1ABD0A4C018C0E9D1E80
:10551000A0917702B0917802512C412CF12CE12C12
:10552000109731F580917502909176028815990552
:1055300009F05CC04616570608F058C08091020179
:1055400090910301009741F48DB79EB740910601F9
:1055500050910701841B950BE817F90708F055C017
:10556000F0937602E0937502F90171836083A0CF16
:105570008D919C91119712966C90129713967C9036
:105580001397A815B90559F56C0142E0C40ED11C5A
:10559000CA14DB0420F1AC014A195B09DA01129646
:1055A000159780F06282738251834083D9016D9395
:1055B0007C93E114F10471F0D7011396FC93EE9300
:1055C000129776CF22968C0F9D1FF90191838083CD
:1055D000F301EFCFF0937802E093770269CF48169A
:1055E000590608F42C017D01D3019ACFCB010E940A
:1055F00026297C01009749F0AE01B8010E94082BD2
:10560000C8010E94C229870153CF10E000E050CFAB
:10561000FB01DC0102C001900D9241505040D8F7CF
:105620000895FB01DC0101900D920020E1F708953F
:1056300010E0CDE4D0E004C0FE010E9420292196B4
:0A564000CE34D107C9F7F894FFCF6C
:10564A000C0100007902800000000000D521B5128B
:10565A0065120000000058017800A500A501160196
:10566A00B40008012F2F22225C5C6208660C6E0AC5
:10567A00720D7409000D0A005C7530303030006E0E
:10568A00756C6C00747275650066616C73650031C7
:10569A00006573004A736F6E2070617273652065CE
:1056AA0072726F7200706F6E6700700032003300A2
:1056BA0074006F6B00706900555000546F006E00E3
:1056CA007600456D70747900436F6D6D616E64206C
:1056DA006E6F74207265636F676E697A65640070B5
:0C56EA0061006C73005374727464000063
:00000001FF
